:020000040000FA
:0400000003EF15F005
:020004000000FA
:080018000EEF00F0796ED8CF65
:100020007AF0E0CF7BF09EA03CD09E907CAA0CD0D2
:10003000829CAB8EB350030B060FE81CCF6EB25000
:10004000CE6E7C9A7C949BD07CACF4D7E1CF77F0D9
:10005000E2CF78F013EE00F0E750746E7CA604D087
:10006000B8AC1AD082AE18D07CB40CD0B06A770E7F
:10007000AF6ECA0ECE6ECF687C8477C0E1FF78C0C9
:10008000E2FF7DD0E750AD6E7C867C88736A77C0D6
:10009000E1FF78C0E2FF73D077C0E1FF78C0E2FFF4
:1000A000C9D7ABA40ED00000AE50AE507668AB9E60
:1000B000828C7C987C90FC0ECF6E7B0ECE6E7C8A00
:1000C0005ED0AE50726E72BE716AE1CF77F0E2CF51
:1000D00078F0030EE26E800E7124E16E7250E76ECE
:1000E00077C0E1FF78C0E2FF72AE13D07250706E3D
:1000F00072BC06D072BA02D0020E08D0040E06D02E
:1001000072BA02D0060E02D07C82FF0E766E712A81
:1001100013D07250701A7CB2766E7C92712A715034
:1001200076620AD0010E716E701ED8A403D07C8056
:10013000AE5002D07C8E23D07CA87CD7725074182D
:10014000D8A4B2D7E1CF77F0E2CF78F0732A030ECC
:10015000E26E000E7324E16EE750746E73507562A8
:1001600007D07C9C7C9877C0E1FF78C0E2FF62D723
:10017000E750AD6E7C8877C0E1FF78C0E2FF7BC0BE
:10018000E0FF79507AC0D8FFF28C10007C6A7D6A5B
:10019000010E716E949C948E010EB46E9298B88686
:1001A000B888AC98AC94B06A770EAF6EAB8EAB8863
:1001B000AC8AAE50AE50AE50AB92AB94CF6ACE6A22
:1001C000310ECD6E9D8A9D809F909F9AD08EF28C2D
:1001D000F28E12003750342401E312008490336A07
:1001E00001EE00F010EE24F03550E96E352A34505F
:1001F000EF6E386E372A3806E92A352A372AE75053
:10020000EF6E331AE12A382EF7D7E92A352A372A32
:100210003350E81CEF6E12007CBC12003550366281
:1002200002D08480120003EE00F021EE00F0365080
:10023000D926DF50386E756E362A3706D92ADF5038
:10024000EF6EE92A362A3706382EF8D77C8C120052
:10025000F29E550EA76EAA0EA76EA682F28EA6B2C9
:10026000FED712007CA0120003018051396E81512B
:100270003A6E82513B6E7C90809A060E206EB00ED4
:100280003962C4EF0AF03BA895D03AA803D080BEEB
:1002900091D002D080AE8ED03AAA03D080BC8AD052
:1002A00002D080AC87D03AAC03D082B083D002D0E9
:1002B00082A080D03BA003D082B27CD002D082A2A8
:1002C00079D03BA203D082B475D002D082A472D080
:1002D0003BA403D082B66ED002D082A66BD03BA6E0
:1002E00003D083B067D002D083A064D084A62CD082
:1002F0003A500F0B000AD8A45DD084900C0E216EEA
:100300003BAA11D04A8084940C0E236E100EA96E65
:10031000A88028EC01F01082000EA96E1050A86E83
:1003200028EC01F047D04A9084920C0E226E100EF9
:10033000A96EA89028EC01F01092000EA96E105042
:10034000A86E28EC01F036D03AA603D080B432D0A3
:1003500002D080A42FD0D890000EE8303A18070BB6
:10036000D8A428D0000EE8B013D03BAA0AD04A8007
:1003700084940C0E236E100EA96EA88028EC01F058
:1003800019D04A90100EA96EA89028EC01F012D056
:100390003BBA0AD04A8084920C0E226E100EA96ECF
:1003A000A88028EC01F006D04A90100EA96EA89003
:1003B00028EC01F000003BA895D03AA803D080BEFD
:1003C00091D002D080AE8ED03AAA03D080BC8AD021
:1003D00002D080AC87D03AAC03D082B083D002D0B8
:1003E00082A080D03BA003D082B27CD002D082A277
:1003F00079D03BA203D082B475D002D082A472D04F
:100400003BA403D082B66ED002D082A66BD03BA6AE
:1004100003D083B067D002D083A064D084A62CD050
:100420003A500F0B010AD8A45DD084900C0E216EB7
:100430003BAA11D04A8284940C0E236E110EA96E31
:10044000A88028EC01F01182010EA96E1150A86E4F
:1004500028EC01F047D04A9284920C0E226E110EC5
:10046000A96EA89028EC01F01192010EA96E11500E
:10047000A86E28EC01F036D03AA603D080B432D072
:1004800002D080A42FD0D890010EE8303A18070B84
:10049000D8A428D0010EE8B013D03BAA0AD04A82D3
:1004A00084940C0E236E110EA96EA88028EC01F026
:1004B00019D04A92110EA96EA89028EC01F012D022
:1004C0003BBA0AD04A8284920C0E226E110EA96E9B
:1004D000A88028EC01F006D04A92110EA96EA890CF
:1004E00028EC01F000003BA895D03AA803D080BECC
:1004F00091D002D080AE8ED03AAA03D080BC8AD0F0
:1005000002D080AC87D03AAC03D082B083D002D086
:1005100082A080D03BA003D082B27CD002D082A245
:1005200079D03BA203D082B475D002D082A472D01D
:100530003BA403D082B66ED002D082A66BD03BA67D
:1005400003D083B067D002D083A064D084A62CD01F
:100550003A500F0B020AD8A45DD084900C0E216E85
:100560003BAA11D04A8484940C0E236E120EA96EFD
:10057000A88028EC01F01282020EA96E1250A86E1B
:1005800028EC01F047D04A9484920C0E226E120E91
:10059000A96EA89028EC01F01292020EA96E1250DA
:1005A000A86E28EC01F036D03AA603D080B432D041
:1005B00002D080A42FD0D890020EE8303A18070B52
:1005C000D8A428D0020EE8B013D03BAA0AD04A849F
:1005D00084940C0E236E120EA96EA88028EC01F0F4
:1005E00019D04A94120EA96EA89028EC01F012D0EE
:1005F0003BBA0AD04A8484920C0E226E120EA96E67
:10060000A88028EC01F006D04A94120EA96EA8909A
:1006100028EC01F000003BA895D03AA803D080BE9A
:1006200091D002D080AE8ED03AAA03D080BC8AD0BE
:1006300002D080AC87D03AAC03D082B083D002D055
:1006400082A080D03BA003D082B27CD002D082A214
:1006500079D03BA203D082B475D002D082A472D0EC
:100660003BA403D082B66ED002D082A66BD03BA64C
:1006700003D083B067D002D083A064D084A62CD0EE
:100680003A500F0B030AD8A45DD084900C0E216E53
:100690003BAA11D04A8684940C0E236E130EA96EC9
:1006A000A88028EC01F01382030EA96E1350A86EE7
:1006B00028EC01F047D04A9684920C0E226E130E5D
:1006C000A96EA89028EC01F01392030EA96E1350A6
:1006D000A86E28EC01F036D03AA603D080B432D010
:1006E00002D080A42FD0D890030EE8303A18070B20
:1006F000D8A428D0030EE8B013D03BAA0AD04A866B
:1007000084940C0E236E130EA96EA88028EC01F0C1
:1007100019D04A96130EA96EA89028EC01F012D0B9
:100720003BBA0AD04A8684920C0E226E130EA96E32
:10073000A88028EC01F006D04A96130EA96EA89066
:1007400028EC01F000003BA895D03AA803D080BE69
:1007500091D002D080AE8ED03AAA03D080BC8AD08D
:1007600002D080AC87D03AAC03D082B083D002D024
:1007700082A080D03BA003D082B27CD002D082A2E3
:1007800079D03BA203D082B475D002D082A472D0BB
:100790003BA403D082B66ED002D082A66BD03BA61B
:1007A00003D083B067D002D083A064D084A62CD0BD
:1007B0003A500F0B040AD8A45DD084900C0E216E21
:1007C0003BAA11D04A8884940C0E236E140EA96E95
:1007D000A88028EC01F01482040EA96E1450A86EB3
:1007E00028EC01F047D04A9884920C0E226E140E29
:1007F000A96EA89028EC01F01492040EA96E145072
:10080000A86E28EC01F036D03AA603D080B432D0DE
:1008100002D080A42FD0D890040EE8303A18070BED
:10082000D8A428D0040EE8B013D03BAA0AD04A8836
:1008300084940C0E236E140EA96EA88028EC01F08F
:1008400019D04A98140EA96EA89028EC01F012D085
:100850003BBA0AD04A8884920C0E226E140EA96EFE
:10086000A88028EC01F006D04A98140EA96EA89032
:1008700028EC01F000003BA895D03AA803D080BE38
:1008800091D002D080AE8ED03AAA03D080BC8AD05C
:1008900002D080AC87D03AAC03D082B083D002D0F3
:1008A00082A080D03BA003D082B27CD002D082A2B2
:1008B00079D03BA203D082B475D002D082A472D08A
:1008C0003BA403D082B66ED002D082A66BD03BA6EA
:1008D00003D083B067D002D083A064D084A62CD08C
:1008E0003A500F0B050AD8A45DD084900C0E216EEF
:1008F0003BAA11D04A8A84940C0E236E150EA96E61
:10090000A88028EC01F01582050EA96E1550A86E7E
:1009100028EC01F047D04A9A84920C0E226E150EF4
:10092000A96EA89028EC01F01592050EA96E15503D
:10093000A86E28EC01F036D03AA603D080B432D0AD
:1009400002D080A42FD0D890050EE8303A18070BBB
:10095000D8A428D0050EE8B013D03BAA0AD04A8A02
:1009600084940C0E236E150EA96EA88028EC01F05D
:1009700019D04A9A150EA96EA89028EC01F012D051
:100980003BBA0AD04A8A84920C0E226E150EA96ECA
:10099000A88028EC01F006D04A9A150EA96EA890FE
:1009A00028EC01F000003BA895D03AA803D080BE07
:1009B00091D002D080AE8ED03AAA03D080BC8AD02B
:1009C00002D080AC87D03AAC03D082B083D002D0C2
:1009D00082A080D03BA003D082B27CD002D082A281
:1009E00079D03BA203D082B475D002D082A472D059
:1009F0003BA403D082B66ED002D082A66BD03BA6B9
:100A000003D083B067D002D083A064D084A62CD05A
:100A10003A500F0B060AD8A45DD084900C0E216EBC
:100A20003BAA11D04A8C84940C0E236E160EA96E2C
:100A3000A88028EC01F01682060EA96E1650A86E4A
:100A400028EC01F047D04A9C84920C0E226E160EC0
:100A5000A96EA89028EC01F01692060EA96E165009
:100A6000A86E28EC01F036D03AA603D080B432D07C
:100A700002D080A42FD0D890060EE8303A18070B89
:100A8000D8A428D0060EE8B013D03BAA0AD04A8CCE
:100A900084940C0E236E160EA96EA88028EC01F02B
:100AA00019D04A9C160EA96EA89028EC01F012D01D
:100AB0003BBA0AD04A8C84920C0E226E160EA96E96
:100AC000A88028EC01F006D04A9C160EA96EA890CA
:100AD00028EC01F000003BA895D03AA803D080BED6
:100AE00091D002D080AE8ED03AAA03D080BC8AD0FA
:100AF00002D080AC87D03AAC03D082B083D002D091
:100B000082A080D03BA003D082B27CD002D082A24F
:100B100079D03BA203D082B475D002D082A472D027
:100B20003BA403D082B66ED002D082A66BD03BA687
:100B300003D083B067D002D083A064D084A62CD029
:100B40003A500F0B070AD8A45DD084900C0E216E8A
:100B50003BAA11D04A8E84940C0E236E170EA96EF8
:100B6000A88028EC01F01782070EA96E1750A86E16
:100B700028EC01F047D04A9E84920C0E226E170E8C
:100B8000A96EA89028EC01F01792070EA96E1750D5
:100B9000A86E28EC01F036D03AA603D080B432D04B
:100BA00002D080A42FD0D890070EE8303A18070B57
:100BB000D8A428D0070EE8B013D03BAA0AD04A8E9A
:100BC00084940C0E236E170EA96EA88028EC01F0F9
:100BD00019D04A9E170EA96EA89028EC01F012D0E9
:100BE0003BBA0AD04A8E84920C0E226E170EA96E62
:100BF000A88028EC01F006D04A9E170EA96EA89096
:100C000028EC01F000003BA895D03AA803D080BEA4
:100C100091D002D080AE8ED03AAA03D080BC8AD0C8
:100C200002D080AC87D03AAC03D082B083D002D05F
:100C300082A080D03BA003D082B27CD002D082A21E
:100C400079D03BA203D082B475D002D082A472D0F6
:100C50003BA403D082B66ED002D082A66BD03BA656
:100C600003D083B067D002D083A064D084A62CD0F8
:100C70003A500F0B080AD8A45DD084900C0E216E58
:100C80003BAA11D04B8084940C0E236E180EA96ED3
:100C9000A88028EC01F01882080EA96E1850A86EE2
:100CA00028EC01F047D04B9084920C0E226E180E67
:100CB000A96EA89028EC01F01892080EA96E1850A1
:100CC000A86E28EC01F036D03AA603D080B432D01A
:100CD00002D080A42FD0D890080EE8303A18070B25
:100CE000D8A428D0080EE8B013D03BAA0AD04B8075
:100CF00084940C0E236E180EA96EA88028EC01F0C7
:100D000019D04B90180EA96EA89028EC01F012D0C3
:100D10003BBA0AD04B8084920C0E226E180EA96E3C
:100D2000A88028EC01F006D04B90180EA96EA89070
:100D300028EC01F000003BA895D03AA803D080BE73
:100D400091D002D080AE8ED03AAA03D080BC8AD097
:100D500002D080AC87D03AAC03D082B083D002D02E
:100D600082A080D03BA003D082B27CD002D082A2ED
:100D700079D03BA203D082B475D002D082A472D0C5
:100D80003BA403D082B66ED002D082A66BD03BA625
:100D900003D083B067D002D083A064D084A62CD0C7
:100DA0003A500F0B090AD8A45DD084900C0E216E26
:100DB0003BAA11D04B8284940C0E236E190EA96E9F
:100DC000A88028EC01F01982090EA96E1950A86EAE
:100DD00028EC01F047D04B9284920C0E226E190E33
:100DE000A96EA89028EC01F01992090EA96E19506D
:100DF000A86E28EC01F036D03AA603D080B432D0E9
:100E000002D080A42FD0D890090EE8303A18070BF2
:100E1000D8A428D0090EE8B013D03BAA0AD04B8240
:100E200084940C0E236E190EA96EA88028EC01F094
:100E300019D04B92190EA96EA89028EC01F012D08F
:100E40003BBA0AD04B8284920C0E226E190EA96E08
:100E5000A88028EC01F006D04B92190EA96EA8903C
:100E600028EC01F000003BA895D03AA803D080BE42
:100E700091D002D080AE8ED03AAA03D080BC8AD066
:100E800002D080AC87D03AAC03D082B083D002D0FD
:100E900082A080D03BA003D082B27CD002D082A2BC
:100EA00079D03BA203D082B475D002D082A472D094
:100EB0003BA403D082B66ED002D082A66BD03BA6F4
:100EC00003D083B067D002D083A064D084A62CD096
:100ED0003A500F0B0A0AD8A45DD084900C0E216EF4
:100EE0003BAA11D04B8484940C0E236E1A0EA96E6B
:100EF000A88028EC01F01A820A0EA96E1A50A86E7A
:100F000028EC01F047D04B9484920C0E226E1A0EFE
:100F1000A96EA89028EC01F01A920A0EA96E1A5038
:100F2000A86E28EC01F036D03AA603D080B432D0B7
:100F300002D080A42FD0D8900A0EE8303A18070BC0
:100F4000D8A428D00A0EE8B013D03BAA0AD04B840C
:100F500084940C0E236E1A0EA96EA88028EC01F062
:100F600019D04B941A0EA96EA89028EC01F012D05B
:100F70003BBA0AD04B8484920C0E226E1A0EA96ED4
:100F8000A88028EC01F006D04B941A0EA96EA89008
:100F900028EC01F000003BA895D03AA803D080BE11
:100FA00091D002D080AE8ED03AAA03D080BC8AD035
:100FB00002D080AC87D03AAC03D082B083D002D0CC
:100FC00082A080D03BA003D082B27CD002D082A28B
:100FD00079D03BA203D082B475D002D082A472D063
:100FE0003BA403D082B66ED002D082A66BD03BA6C3
:100FF00003D083B067D002D083A064D084A62CD065
:101000003A500F0B0B0AD8A45DD084900C0E216EC1
:101010003BAA11D04B8684940C0E236E1B0EA96E36
:10102000A88028EC01F01B820B0EA96E1B50A86E45
:1010300028EC01F047D04B9684920C0E226E1B0ECA
:10104000A96EA89028EC01F01B920B0EA96E1B5004
:10105000A86E28EC01F036D03AA603D080B432D086
:1010600002D080A42FD0D8900B0EE8303A18070B8E
:10107000D8A428D00B0EE8B013D03BAA0AD04B86D8
:1010800084940C0E236E1B0EA96EA88028EC01F030
:1010900019D04B961B0EA96EA89028EC01F012D027
:1010A0003BBA0AD04B8684920C0E226E1B0EA96EA0
:1010B000A88028EC01F006D04B961B0EA96EA890D4
:1010C00028EC01F000003BA895D03AA803D080BEE0
:1010D00091D002D080AE8ED03AAA03D080BC8AD004
:1010E00002D080AC87D03AAC03D082B083D002D09B
:1010F00082A080D03BA003D082B27CD002D082A25A
:1011000079D03BA203D082B475D002D082A472D031
:101110003BA403D082B66ED002D082A66BD03BA691
:1011200003D083B067D002D083A064D084A62CD033
:101130003A500F0B0C0AD8A45DD084900C0E216E8F
:101140003BAA11D04B8884940C0E236E1C0EA96E02
:10115000A88028EC01F01C820C0EA96E1C50A86E11
:1011600028EC01F047D04B9884920C0E226E1C0E96
:10117000A96EA89028EC01F01C920C0EA96E1C50D0
:10118000A86E28EC01F036D03AA603D080B432D055
:1011900002D080A42FD0D8900C0EE8303A18070B5C
:1011A000D8A428D00C0EE8B013D03BAA0AD04B88A4
:1011B00084940C0E236E1C0EA96EA88028EC01F0FE
:1011C00019D04B981C0EA96EA89028EC01F012D0F3
:1011D0003BBA0AD04B8884920C0E226E1C0EA96E6C
:1011E000A88028EC01F006D04B981C0EA96EA890A0
:1011F00028EC01F000003BA895D03AA803D080BEAF
:1012000091D002D080AE8ED03AAA03D080BC8AD0D2
:1012100002D080AC87D03AAC03D082B083D002D069
:1012200082A080D03BA003D082B27CD002D082A228
:1012300079D03BA203D082B475D002D082A472D000
:101240003BA403D082B66ED002D082A66BD03BA660
:1012500003D083B067D002D083A064D084A62CD002
:101260003A500F0B0D0AD8A45DD084900C0E216E5D
:101270003BAA11D04B8A84940C0E236E1D0EA96ECE
:10128000A88028EC01F01D820D0EA96E1D50A86EDD
:1012900028EC01F047D04B9A84920C0E226E1D0E62
:1012A000A96EA89028EC01F01D920D0EA96E1D509C
:1012B000A86E28EC01F036D03AA603D080B432D024
:1012C00002D080A42FD0D8900D0EE8303A18070B2A
:1012D000D8A428D00D0EE8B013D03BAA0AD04B8A70
:1012E00084940C0E236E1D0EA96EA88028EC01F0CC
:1012F00019D04B9A1D0EA96EA89028EC01F012D0BF
:101300003BBA0AD04B8A84920C0E226E1D0EA96E37
:10131000A88028EC01F006D04B9A1D0EA96EA8906B
:1013200028EC01F000003BA895D03AA803D080BE7D
:1013300091D002D080AE8ED03AAA03D080BC8AD0A1
:1013400002D080AC87D03AAC03D082B083D002D038
:1013500082A080D03BA003D082B27CD002D082A2F7
:1013600079D03BA203D082B475D002D082A472D0CF
:101370003BA403D082B66ED002D082A66BD03BA62F
:1013800003D083B067D002D083A064D084A62CD0D1
:101390003A500F0B0E0AD8A45DD084900C0E216E2B
:1013A0003BAA11D04B8C84940C0E236E1E0EA96E9A
:1013B000A88028EC01F01E820E0EA96E1E50A86EA9
:1013C00028EC01F047D04B9C84920C0E226E1E0E2E
:1013D000A96EA89028EC01F01E920E0EA96E1E5068
:1013E000A86E28EC01F036D03AA603D080B432D0F3
:1013F00002D080A42FD0D8900E0EE8303A18070BF8
:10140000D8A428D00E0EE8B013D03BAA0AD04B8C3B
:1014100084940C0E236E1E0EA96EA88028EC01F099
:1014200019D04B9C1E0EA96EA89028EC01F012D08A
:101430003BBA0AD04B8C84920C0E226E1E0EA96E03
:10144000A88028EC01F006D04B9C1E0EA96EA89037
:1014500028EC01F000003BA895D03AA803D080BE4C
:1014600091D002D080AE8ED03AAA03D080BC8AD070
:1014700002D080AC87D03AAC03D082B083D002D007
:1014800082A080D03BA003D082B27CD002D082A2C6
:1014900079D03BA203D082B475D002D082A472D09E
:1014A0003BA403D082B66ED002D082A66BD03BA6FE
:1014B00003D083B067D002D083A064D084A62CD0A0
:1014C0003A500F0B0F0AD8A45DD084900C0E216EF9
:1014D0003BAA11D04B8E84940C0E236E1F0EA96E66
:1014E000A88028EC01F01F820F0EA96E1F50A86E75
:1014F00028EC01F047D04B9E84920C0E226E1F0EFA
:10150000A96EA89028EC01F01F920F0EA96E1F5033
:10151000A86E28EC01F036D03AA603D080B432D0C1
:1015200002D080A42FD0D8900F0EE8303A18070BC5
:10153000D8A428D00F0EE8B013D03BAA0AD04B8E07
:1015400084940C0E236E1F0EA96EA88028EC01F067
:1015500019D04B9E1F0EA96EA89028EC01F012D056
:101560003BBA0AD04B8E84920C0E226E1F0EA96ECF
:10157000A88028EC01F006D04B9E1F0EA96EA89003
:1015800028EC01F000001200120048A0E0EF0AF081
:101590000050D8B448EF0BF000060050400AD8A421
:1015A00048EF0BF0109080B2ECEF0AF0010E010A48
:1015B000D8A400D01200010E020AD8A40DD0120047
:1015C000003E03D0000648EF0BF00050C00AD8A43C
:1015D00048EF0BF010801072040E346E266AB00EC5
:1015E000246E84B61FEF0BF0D890000E256E2532C6
:1015F00080A4258680AE258880AC258A82A0258C93
:1016000082A2268082A4268282A6268483A02686A1
:1016100010B02688000EE8A0268AEAEC00F010A0A0
:1016200048EF0BF0000EE8B004D084940C0E236E4B
:1016300048EF0BF084920C0E226E48EF0BF0000E78
:10164000256E80AE258880AC258A82A0258C82A25A
:10165000268082A4268282A6268483A0268610B0B5
:10166000268810B2268AEAEC00F0000EA96E10500F
:10167000A86E28EC01F010A00BD010B2E8B004D096
:1016800084940C0E236E48EF0BF084920C0E226EA5
:1016900048A263EF0BF00150D8B4CBEF0BF001067A
:1016A0000150400AD8A4CBEF0BF0119080B26FEF3D
:1016B0000BF0020E010AD8A400D01200020E020A9A
:1016C000D8A40DD01200013E03D00106CBEF0BF0E1
:1016D0000150C00AD8A4CBEF0BF011801172040E98
:1016E000346E266AB00E246E84B6A2EF0BF0D8904A
:1016F000010E256E253280A4258680AE258880AC1B
:10170000258A82A0258C82A2268082A4268282A697
:10171000268483A0268611B02688010EE8A0268A9A
:10172000EAEC00F011A0CBEF0BF0010EE8B004D012
:1017300084940C0E236ECBEF0BF084920C0E226E71
:10174000CBEF0BF0010E256E80AE258880AC258A8C
:1017500082A0258C82A2268082A4268282A626844C
:1017600083A0268611B0268811B2268AEAEC00F002
:10177000010EA96E1150A86E28EC01F011A00BD03B
:1017800011B2E8B004D084940C0E236ECBEF0BF0B2
:1017900084920C0E226E48A4E6EF0BF00250D8B4EF
:1017A0004EEF0CF002060250400AD8A44EEF0CF0A7
:1017B000129080B2F2EF0BF0030E010AD8A400D011
:1017C0001200030E020AD8A40DD01200023E03D06C
:1017D00002064EEF0CF00250C00AD8A44EEF0CF0F7
:1017E00012801272040E346E266AB00E246E84B615
:1017F00025EF0CF0D890020E256E253280A42586A8
:1018000080AE258880AC258A82A0258C82A2268085
:1018100082A4268282A6268483A0268612B02688E9
:10182000020EE8A0268AEAEC00F012A04EEF0CF0BF
:10183000020EE8B004D084940C0E236E4EEF0CF030
:1018400084920C0E226E4EEF0CF0020E256E80AECE
:10185000258880AC258A82A0258C82A2268082A43D
:10186000268282A6268483A0268612B0268812B2FB
:10187000268AEAEC00F0020EA96E1250A86E28EC3F
:1018800001F012A00BD012B2E8B004D084940C0E78
:10189000236E4EEF0CF084920C0E226E48A669EF78
:1018A0000CF00350D8B4D1EF0CF003060350400AFB
:1018B000D8A4D1EF0CF0139080B275EF0CF0040EA9
:1018C000010AD8A400D01200040E020AD8A40DD038
:1018D0001200033E03D00306D1EF0CF00350C00A00
:1018E000D8A4D1EF0CF013801372040E346E266A64
:1018F000B00E246E84B6A8EF0CF0D890030E256EBF
:10190000253280A4258680AE258880AC258A82A0D9
:10191000258C82A2268082A4268282A6268483A089
:10192000268613B02688030EE8A0268AEAEC00F08B
:1019300013A0D1EF0CF0030EE8B004D084940C0E89
:10194000236ED1EF0CF084920C0E226ED1EF0CF0CE
:10195000030E256E80AE258880AC258A82A0258C5A
:1019600082A2268082A4268282A6268483A026863E
:1019700013B0268813B2268AEAEC00F0030EA96E93
:101980001350A86E28EC01F013A00BD013B2E8B0EE
:1019900004D084940C0E236ED1EF0CF084920C0EC4
:1019A000226E48A8ECEF0CF00450D8B454EF0DF0C0
:1019B00004060450400AD8A454EF0DF0149080B2ED
:1019C000F8EF0CF0050E010AD8A400D01200050EA5
:1019D000020AD8A40DD01200043E03D0040654EF2E
:1019E0000DF00450C00AD8A454EF0DF01480147206
:1019F000040E346E266AB00E246E84B62BEF0DF002
:101A0000D890040E256E253280A4258680AE2588C8
:101A100080AC258A82A0258C82A2268082A4268280
:101A200082A6268483A0268614B02688040EE8A009
:101A3000268AEAEC00F014A054EF0DF0040EE8B092
:101A400004D084940C0E236E54EF0DF084920C0E8F
:101A5000226E54EF0DF0040E256E80AE258880AC0A
:101A6000258A82A0258C82A2268082A4268282A634
:101A7000268483A0268614B0268814B2268AEAEC2F
:101A800000F0040EA96E1450A86E28EC01F014A00A
:101A90000BD014B2E8B004D084940C0E236E54EF33
:101AA0000DF084920C0E226E48AA6FEF0DF00550D7
:101AB000D8B4D7EF0DF005060550400AD8A4D7EFEB
:101AC0000DF0159080B27BEF0DF0060E010AD8A440
:101AD00000D01200060E020AD8A40DD01200053E56
:101AE00003D00506D7EF0DF00550C00AD8A4D7EFF4
:101AF0000DF015801572040E346E266AB00E246E39
:101B000084B6AEEF0DF0D890050E256E253280A478
:101B1000258680AE258880AC258A82A0258C82A26D
:101B2000268082A4268282A6268483A0268615B0DB
:101B30002688050EE8A0268AEAEC00F015A0D7EF6B
:101B40000DF0050EE8B004D084940C0E236ED7EF90
:101B50000DF084920C0E226ED7EF0DF0050E256E5F
:101B600080AE258880AC258A82A0258C82A2268022
:101B700082A4268282A6268483A0268615B0268883
:101B800015B2268AEAEC00F0050EA96E1550A86E73
:101B900028EC01F015A00BD015B2E8B004D0849465
:101BA0000C0E236ED7EF0DF084920C0E226E48AC13
:101BB000F2EF0DF00650D8B45AEF0EF006060650BC
:101BC000400AD8A45AEF0EF0169080B2FEEF0DF046
:101BD000070E010AD8A400D01200070E020AD8A4EA
:101BE0000DD01200063E03D006065AEF0EF0065046
:101BF000C00AD8A45AEF0EF016801672040E346E86
:101C0000266AB00E246E84B631EF0EF0D890060E20
:101C1000256E253280A4258680AE258880AC258A55
:101C200082A0258C82A2268082A4268282A6268477
:101C300083A0268616B02688060EE8A0268AEAEC3F
:101C400000F016A05AEF0EF0060EE8B004D084940F
:101C50000C0E236E5AEF0EF084920C0E226E5AEF89
:101C60000EF0060E256E80AE258880AC258A82A0F7
:101C7000258C82A2268082A4268282A6268483A026
:101C8000268616B0268816B2268AEAEC00F0060EE2
:101C9000A96E1650A86E28EC01F016A00BD016B253
:101CA000E8B004D084940C0E236E5AEF0EF08492A8
:101CB0000C0E226E48AE75EF0EF00750D8B4DDEF73
:101CC0000EF007060750400AD8A4DDEF0EF017907B
:101CD00080B281EF0EF0080E010AD8A400D01200E5
:101CE000080E020AD8A40DD01200073E03D0070642
:101CF000DDEF0EF00750C00AD8A4DDEF0EF017801C
:101D00001772040E346E266AB00E246E84B6B4EFD9
:101D10000EF0D890070E256E253280A4258680AE61
:101D2000258880AC258A82A0258C82A2268082A468
:101D3000268282A6268483A0268617B02688070ED0
:101D4000E8A0268AEAEC00F017A0DDEF0EF0070EFF
:101D5000E8B004D084940C0E236EDDEF0EF0849274
:101D60000C0E226EDDEF0EF0070E256E80AE25887C
:101D700080AC258A82A0258C82A2268082A426821D
:101D800082A6268483A0268617B0268817B2268AC4
:101D9000EAEC00F0070EA96E1750A86E28EC01F0CF
:101DA00017A00BD017B2E8B004D084940C0E236EA9
:101DB000DDEF0EF084920C0E226E49A0F8EF0EF0CB
:101DC0000850D8B460EF0FF008060850400AD8A4B5
:101DD00060EF0FF0189080B204EF0FF0090E010AC7
:101DE000D8A400D01200090E020AD8A40DD0120007
:101DF000083E03D0080660EF0FF00850C00AD8A4D0
:101E000060EF0FF018801872040E346E266AB00E60
:101E1000246E84B637EF0FF0D890080E256E253269
:101E200080A4258680AE258880AC258A82A0258C5A
:101E300082A2268082A4268282A6268483A0268669
:101E400018B02688080EE8A0268AEAEC00F018A050
:101E500060EF0FF0080EE8B004D084940C0E236EEF
:101E600060EF0FF084920C0E226E60EF0FF0080E00
:101E7000256E80AE258880AC258A82A0258C82A222
:101E8000268082A4268282A6268483A0268618B075
:101E9000268818B2268AEAEC00F0080EA96E1850BF
:101EA000A86E28EC01F018A00BD018B2E8B004D04E
:101EB00084940C0E236E60EF0FF084920C0E226E51
:101EC00049A27BEF0FF00950D8B4E3EF0FF00906F9
:101ED0000950400AD8A4E3EF0FF0199080B287EFC1
:101EE0000FF00A0E010AD8A400D012000A0E020A4E
:101EF000D8A40DD01200093E03D00906E3EF0FF07D
:101F00000950C00AD8A4E3EF0FF019801972040E2B
:101F1000346E266AB00E246E84B6BAEF0FF0D890F5
:101F2000090E256E253280A4258680AE258880ACDA
:101F3000258A82A0258C82A2268082A4268282A65F
:101F4000268483A0268619B02688090EE8A0268A52
:101F5000EAEC00F019A0E3EF0FF0090EE8B004D0AE
:101F600084940C0E236EE3EF0FF084920C0E226E1D
:101F7000E3EF0FF0090E256E80AE258880AC258A30
:101F800082A0258C82A2268082A4268282A6268414
:101F900083A0268619B0268819B2268AEAEC00F0BA
:101FA000090EA96E1950A86E28EC01F019A00BD0EB
:101FB00019B2E8B004D084940C0E236EE3EF0FF056
:101FC00084920C0E226E49A4FEEF0FF00A50D8B492
:101FD00066EF10F00A060A50400AD8A466EF10F027
:101FE0001A9080B20AEF10F00B0E010AD8A400D0AC
:101FF00012000B0E020AD8A40DD012000A3E03D024
:102000000A0666EF10F00A50C00AD8A466EF10F076
:102010001A801A72040E346E266AB00E246E84B6CC
:102020003DEF10F0D8900A0E256E253280A425864B
:1020300080AE258880AC258A82A0258C82A226804D
:1020400082A4268282A6268483A026861AB02688A9
:102050000A0EE8A0268AEAEC00F01AA066EF10F05B
:102060000A0EE8B004D084940C0E236E66EF10F0D4
:1020700084920C0E226E66EF10F00A0E256E80AE72
:10208000258880AC258A82A0258C82A2268082A405
:10209000268282A6268483A026861AB026881AB2B3
:1020A000268AEAEC00F00A0EA96E1A50A86E28ECF7
:1020B00001F01AA00BD01AB2E8B004D084940C0E30
:1020C000236E66EF10F084920C0E226E49A681EF0B
:1020D00010F00B50D8B4E9EF10F00B060B50400A8B
:1020E000D8A4E9EF10F01B9080B28DEF10F00C0E29
:1020F000010AD8A400D012000C0E020AD8A40DD0F8
:1021000012000B3E03D00B06E9EF10F00B50C00A93
:10211000D8A4E9EF10F01B801B72040E346E266AFF
:10212000B00E246E84B6C0EF10F0D8900B0E256E62
:10213000253280A4258680AE258880AC258A82A0A1
:10214000258C82A2268082A4268282A6268483A051
:1021500026861BB026880B0EE8A0268AEAEC00F043
:102160001BA0E9EF10F00B0EE8B004D084940C0E25
:10217000236EE9EF10F084920C0E226EE9EF10F05E
:102180000B0E256E80AE258880AC258A82A0258C1A
:1021900082A2268082A4268282A6268483A0268606
:1021A0001BB026881BB2268AEAEC00F00B0EA96E43
:1021B0001B50A86E28EC01F01BA00BD01BB2E8B09E
:1021C00004D084940C0E236EE9EF10F084920C0E70
:1021D000226E49A804EF11F00C50D8B46CEF11F046
:1021E0000C060C50400AD8A46CEF11F01C9080B281
:1021F00010EF11F00D0E010AD8A400D012000D0E40
:10220000020AD8A40DD012000C3E03D00C066CEFCD
:1022100011F00C50C00AD8A46CEF11F01C801C7295
:10222000040E346E266AB00E246E84B643EF11F0AD
:10223000D8900C0E256E253280A4258680AE258888
:1022400080AC258A82A0258C82A2268082A4268248
:1022500082A6268483A026861CB026880C0EE8A0C1
:10226000268AEAEC00F01CA06CEF11F00C0EE8B02E
:1022700004D084940C0E236E6CEF11F084920C0E3B
:10228000226E6CEF11F00C0E256E80AE258880ACAE
:10229000258A82A0258C82A2268082A4268282A6FC
:1022A000268483A026861CB026881CB2268AEAECE7
:1022B00000F00C0EA96E1C50A86E28EC01F01CA0BA
:1022C0000BD01CB2E8B004D084940C0E236E6CEFDB
:1022D00011F084920C0E226E49AA87EF11F00D5076
:1022E000D8B4EFEF11F00D060D50400AD8A4EFEF6F
:1022F00011F01D9080B293EF11F00E0E010AD8A4D8
:1023000000D012000E0E020AD8A40DD012000D3E0D
:1023100003D00D06EFEF11F00D50C00AD8A4EFEF77
:1023200011F01D801D72040E346E266AB00E246EEC
:1023300084B6C6EF11F0D8900D0E256E253280A41C
:10234000258680AE258880AC258A82A0258C82A235
:10235000268082A4268282A6268483A026861DB09B
:1023600026880D0EE8A0268AEAEC00F01DA0EFEF0B
:1023700011F00D0EE8B004D084940C0E236EEFEF34
:1023800011F084920C0E226EEFEF11F00D0E256EFF
:1023900080AE258880AC258A82A0258C82A22680EA
:1023A00082A4268282A6268483A026861DB0268843
:1023B0001DB2268AEAEC00F00D0EA96E1D50A86E23
:1023C00028EC01F01DA00BD01DB2E8B004D084941D
:1023D0000C0E236EEFEF11F084920C0E226E49ACBE
:1023E0000AEF12F00E50D8B472EF12F00E060E5033
:1023F000400AD8A472EF12F01E9080B216EF12F0CD
:102400000F0E010AD8A400D012000F0E020AD8A4A1
:102410000DD012000E3E03D00E0672EF12F00E50D9
:10242000C00AD8A472EF12F01E801E72040E346E21
:10243000266AB00E246E84B649EF12F0D8900E0EC4
:10244000256E253280A4258680AE258880AC258A1D
:1024500082A0258C82A2268082A4268282A626843F
:1024600083A026861EB026880E0EE8A0268AEAECF7
:1024700000F01EA072EF12F00E0EE8B004D08494AB
:102480000C0E236E72EF12F084920C0E226E72EF1D
:1024900012F00E0E256E80AE258880AC258A82A0B3
:1024A000258C82A2268082A4268282A6268483A0EE
:1024B00026861EB026881EB2268AEAEC00F00E0E92
:1024C000A96E1E50A86E28EC01F01EA00BD01EB203
:1024D000E8B004D084940C0E236E72EF12F0849254
:1024E0000C0E226E49AE8DEF12F00F50D8B4F5EFFE
:1024F00012F00F060F50400AD8A4F5EF12F01F900B
:1025000080B299EF12F0100E010AD8A400D0120088
:10251000100E020AD8A40DD012000F3E03D00F06F1
:10252000F5EF12F00F50C00AD8A4F5EF12F01F809B
:102530001F72040E346E266AB00E246E84B6CCEF81
:1025400012F0D8900F0E256E253280A4258680AE1D
:10255000258880AC258A82A0258C82A2268082A430
:10256000268282A6268483A026861FB026880F0E88
:10257000E8A0268AEAEC00F01FA0F5EF12F00F0E9B
:10258000E8B004D084940C0E236EF5EF12F0849220
:102590000C0E226EF5EF12F00F0E256E80AE258820
:1025A00080AC258A82A0258C82A2268082A42682E5
:1025B00082A6268483A026861FB026881FB2268A7C
:1025C000EAEC00F00F0EA96E1F50A86E28EC01F087
:1025D0001FA00BD01FB2E8B004D084940C0E236E61
:1025E000F5EF12F084920C0E226E1200F30E936E31
:1025F0008F0E946EFF0E956E8298829A83848386E6
:10260000838C838E8194819681808182818C818E5E
:102610004C6A4C8212004CB8D4EF13F04CB454EF17
:1026200013F04CB694EF13F0838E818E8298829AC9
:1026300081948196958E938E4C924C8484B62BEF28
:1026400013F04ABE81844ABC81864BBE82884BBC53
:10265000828A33EF13F04AB681844ABE81864BB634
:1026600082884BBE828A839481909594939084B69D
:1026700047EF13F0489C489E499C499E81BA488E7A
:1026800081B8488C83BA498E83B8498C1200489629
:10269000489E4996499E81BA488681B8488E83BA39
:1026A000498683B8498E1200838481808298829AF9
:1026B00081948196958493804C944C8684B66BEF7C
:1026C00013F04ABA81844AB881864BBA82884BB8E3
:1026D000828A73EF13F04AB481844ABC81864BB47A
:1026E00082884BBC828A839681929596939284B617
:1026F00087EF13F04898489A4998499A81BA488ACE
:1027000081B8488883BA498A83B8498812004894B6
:10271000489C4994499C81BA488481B8488C83BAC2
:10272000498483B8498C1200838681828298829A78
:1027300081948196958693824C964C8884B6ABEFB3
:1027400013F04AB681844AB481864BB682884BB472
:10275000828AB3EF13F04AB281844ABA81864BB2BF
:1027600082884BBA828A839C819C959C939C84B678
:10277000C7EF13F0489448964994499681BA488621
:1027800081B8488483BA498683B849841200489244
:10279000489A4992499A81BA488281B8488A83BA4C
:1027A000498283B8498A1200838C818C8298829AEC
:1027B00081948196958C938C4C984C8284B6EBEFE7
:1027C00013F04AB281844AB081864BB282884BB002
:1027D000828AF3EF13F04AB081844AB881864BB005
:1027E00082884BB8828A839E819E959E939E84B6F2
:1027F00007EF14F0489048924990499281BA488274
:1028000081B8488083BA498283B8498012004890D1
:1028100048984990499881BA488081B8488883BAD5
:10282000498083B849881200D388D38A9B8CB26AC6
:10283000B36A110EB16EC40ED56E356A366A376A48
:102840000F0EC16EA69EA69CA684AA6AA96AA6803F
:10285000A850106EA92AA680A850116EA92AA68099
:10286000A850126EA92AA680A850136EA92AA68085
:10287000A850146EA92AA680A850156EA92AA68071
:10288000A850166EA92AA680A850176EA92AA6805D
:10289000A850186EA92AA680A850196EA92AA68049
:1028A000A8501A6EA92AA680A8501B6EA92AA68035
:1028B000A8501C6EA92AA680A8501D6EA92AA68021
:1028C000A8501E6EA92AA680A8501F6EA92A4A6A7F
:1028D0004B6AA680A850E8B04A80A92AA680A850D2
:1028E000E8B04A82A92AA680A850E8B04A84A92A5A
:1028F000829AA680A850E8B04A86A92AA680A85045
:10290000E8B04A88A92AA680A850E8B04A8AA92A2D
:10291000A680A850E8B04A8CA92AA680A850E8B0A2
:102920004A8EA92AA680A850E8B04B80A92AA68082
:10293000A850E8B04B82A92AA680A850E8B04B84E2
:10294000A92AA680A850E8B04B86A92AA680A8503C
:10295000E8B04B88A92AA680A850E8B04B8AA92ADB
:10296000A680A850E8B04B8CA92AA680A850E8B051
:102970004B8EA92A80B212004A924A801200CF0ED2
:10298000926EFF0E936EBF0E946EFF0E956EE80E64
:10299000966E808A848084828484010E206E216EEB
:1029A000226E236E006A016A026A036A046A056A7B
:1029B000066A076A086A096A0A6A0B6A0C6A0D6A7B
:1029C0000E6A0F6A496A486A1200202E02D0808A75
:1029D000202A222E02D08482222A232E02D084840E
:1029E000232A1200A1B2FED70BEC13F0A1B2FED73E
:1029F0000BEC13F0A1B2FED70BEC13F0A1B2FED793
:102A00000BEC13F0120014EC14F0BFEC14F0C6EC55
:102A100000F0F6EC12F0F2EC14F0F2A403D0F29411
:102A20000BEC13F0A1A203D0A192E5EC14F0C5ECDD
:0E2A30000AF00CEC01F032EC01F00DEF15F0A5
:020000040030CA
:0100010008F6
:0100020018E5
:010003001EDE
:0100050001F9
:010006008079
:010008000FE8
:01000900C036
:00000001FF
