:020000040000FA
:0400000082EF0DF08E
:020004000000FA
:080018000EEF00F0796ED8CF65
:100020007AF0E0CF7BF09EA03CD09E907CAA0CD0D2
:10003000829CAB8EB350030B060FE81CCF6EB25000
:10004000CE6E7C9A7C949BD07CACF4D7E1CF77F0D9
:10005000E2CF78F013EE00F0E750746E7CA604D087
:10006000B8AC1AD082AE18D07CB40CD0B06A770E7F
:10007000AF6ECA0ECE6ECF687C8477C0E1FF78C0C9
:10008000E2FF7DD0E750AD6E7C867C88736A77C0D6
:10009000E1FF78C0E2FF73D077C0E1FF78C0E2FFF4
:1000A000C9D7ABA40ED00000AE50AE507668AB9E60
:1000B000828C7C987C90FC0ECF6E7B0ECE6E7C8A00
:1000C0005ED0AE50726E72BE716AE1CF77F0E2CF51
:1000D00078F0030EE26E800E7124E16E7250E76ECE
:1000E00077C0E1FF78C0E2FF72AE13D07250706E3D
:1000F00072BC06D072BA02D0020E08D0040E06D02E
:1001000072BA02D0060E02D07C82FF0E766E712A81
:1001100013D07250701A7CB2766E7C92712A715034
:1001200076620AD0010E716E701ED8A403D07C8056
:10013000AE5002D07C8E23D07CA87CD7725074182D
:10014000D8A4B2D7E1CF77F0E2CF78F0732A030ECC
:10015000E26E000E7324E16EE750746E73507562A8
:1001600007D07C9C7C9877C0E1FF78C0E2FF62D723
:10017000E750AD6E7C8877C0E1FF78C0E2FF7BC0BE
:10018000E0FF79507AC0D8FFF28C10007C6A7D6A5B
:10019000010E716E949C948E010EB46E9298B88686
:1001A000B888AC98AC94B06A770EAF6EAB8EAB8863
:1001B000AC8AAE50AE50AE50AB92AB94CF6ACE6A22
:1001C000310ECD6E9D8A9D809F909F9AD08EF28C2D
:1001D000F28E12003750342401E312008490336A07
:1001E00001EE00F010EE24F03550E96E352A34505F
:1001F000EF6E386E372A3806E92A352A372AE75053
:10020000EF6E331AE12A382EF7D7E92A352A372A32
:100210003350E81CEF6E12007CBC12003550366281
:1002200002D08480120003EE00F021EE00F0365080
:10023000D926DF50386E756E362A3706D92ADF5038
:10024000EF6EE92A362A3706382EF8D77C8C120052
:10025000F29E550EA76EAA0EA76EA682F28E12000F
:100260007CA012007C90809A060E206E1200040E74
:10027000346E83A449EF01F00050D8B4F5EF01F0DB
:1002800000060050400AD8A4F5EF01F0109055EF99
:1002900001F0003E03D00006F5EF01F00050C00A67
:1002A000D8A4F5EF01F01080107284A684EF01F05D
:1002B00080A284EF01F0266AB20E246ED890000E60
:1002C000256E2532D8B0268A80AE258680AC25885A
:1002D00082A0258A82A2258C82A4268082A62682DC
:1002E00083A0268483A2268610B02688EAEC00F03C
:1002F00010B004D084940C0E236EF5EF01F08492BC
:100300000C0E226EF5EF01F0266AB00E246E84B654
:10031000B8EF01F080B2B8EF01F0D890000E256E72
:10032000253280A4258680AE258880AC258A82A0CF
:10033000258C82A2268082A4268282A6268483A07F
:10034000268610B02688000EE8A0268AEAEC00F087
:1003500010A0F5EF01F0000EE8B004D084940C0E6C
:10036000236EF5EF01F084920C0E226EF5EF01F092
:10037000000E256E80AE258880AC258A82A0258C53
:1003800082A2268082A4268282A6268483A0268634
:1003900080A2DCEF01F0268810B0268AEAEC00F09B
:1003A00010B004D084940C0E236EF5EF01F084920B
:1003B0000C0E226EF5EF01F010B0268810B2268ADE
:1003C000EAEC00F0000EA96E1050A86E28EC01F0C7
:1003D00010A00BD010B2E8B004D084940C0E236EA1
:1003E000F5EF01F084920C0E226E83A605EF02F069
:1003F0000150D8B4B1EF02F001060150400AD8A470
:10040000B1EF02F0119011EF02F0013E03D00106AE
:10041000B1EF02F00150C00AD8A4B1EF02F0118090
:10042000117284A640EF02F080A240EF02F0266A2B
:10043000B20E246ED890010E256E2532D8B0268AD1
:1004400080AE258680AC258882A0258A82A2258C54
:1004500082A4268082A6268283A0268483A2268662
:1004600011B02688EAEC00F011B004D084940C0E90
:10047000236EB1EF02F084920C0E226EB1EF02F007
:10048000266AB00E246E84B674EF02F080B274EF68
:1004900002F0D890010E256E253280A4258680AE0C
:1004A000258880AC258A82A0258C82A2268082A401
:1004B000268282A6268483A0268611B02688010E75
:1004C000E8A0268AEAEC00F011A0B1EF02F0010EDC
:1004D000E8B004D084940C0E236EB1EF02F0849245
:1004E0000C0E226EB1EF02F0010E256E80AE258853
:1004F00080AC258A82A0258C82A2268082A42682B6
:1005000082A6268483A0268680A298EF02F0268801
:1005100011B0268AEAEC00F011B004D084940C0EDD
:10052000236EB1EF02F084920C0E226EB1EF02F056
:1005300011B0268811B2268AEAEC00F0010EA96EED
:100540001150A86E28EC01F011A00BD011B2E8B048
:1005500004D084940C0E236EB1EF02F084920C0E42
:10056000226E82A8C1EF02F00250D8B46DEF03F002
:1005700002060250400AD8A46DEF03F01290CDEFAE
:1005800002F0023E03D002066DEF03F00250C00AF3
:10059000D8A46DEF03F01280127284A6FCEF02F073
:1005A00080A2FCEF02F0266AB20E246ED890020EF2
:1005B000256E2532D8B0268A80AE258680AC258867
:1005C00082A0258A82A2258C82A4268082A62682E9
:1005D00083A0268483A2268612B02688EAEC00F047
:1005E00012B004D084940C0E236E6DEF03F084924D
:1005F0000C0E226E6DEF03F0266AB00E246E84B6E8
:1006000030EF03F080B230EF03F0D890020E256E89
:10061000253280A4258680AE258880AC258A82A0DC
:10062000258C82A2268082A4268282A6268483A08C
:10063000268612B02688020EE8A0268AEAEC00F090
:1006400012A06DEF03F0020EE8B004D084940C0EFB
:10065000236E6DEF03F084920C0E226E6DEF03F0AB
:10066000020E256E80AE258880AC258A82A0258C5E
:1006700082A2268082A4268282A6268483A0268641
:1006800080A254EF03F0268812B0268AEAEC00F02C
:1006900012B004D084940C0E236E6DEF03F084929C
:1006A0000C0E226E6DEF03F012B0268812B2268A6D
:1006B000EAEC00F0020EA96E1250A86E28EC01F0D0
:1006C00012A00BD012B2E8B004D084940C0E236EAA
:1006D0006DEF03F084920C0E226E82AA7DEF03F080
:1006E0000350D8B429EF04F003060350400AD8A4FD
:1006F00029EF04F0139089EF03F0033E03D00306C3
:1007000029EF04F00350C00AD8A429EF04F01380A5
:10071000137284A6B8EF03F080A2B8EF03F0266A44
:10072000B20E246ED890030E256E2532D8B0268ADC
:1007300080AE258680AC258882A0258A82A2258C61
:1007400082A4268082A6268283A0268483A226866F
:1007500013B02688EAEC00F013B004D084940C0E99
:10076000236E29EF04F084920C0E226E29EF04F020
:10077000266AB00E246E84B6ECEF03F080B2ECEF84
:1007800003F0D890030E256E253280A4258680AE16
:10079000258880AC258A82A0258C82A2268082A40E
:1007A000268282A6268483A0268613B02688030E7E
:1007B000E8A0268AEAEC00F013A029EF04F0030E6B
:1007C000E8B004D084940C0E236E29EF04F08492D8
:1007D0000C0E226E29EF04F0030E256E80AE2588E4
:1007E00080AC258A82A0258C82A2268082A42682C3
:1007F00082A6268483A0268680A210EF04F0268895
:1008000013B0268AEAEC00F013B004D084940C0EE6
:10081000236E29EF04F084920C0E226E29EF04F06F
:1008200013B0268813B2268AEAEC00F0030EA96EF4
:100830001350A86E28EC01F013A00BD013B2E8B04F
:1008400004D084940C0E236E29EF04F084920C0ED5
:10085000226E83A839EF04F00450D8B4E5EF04F019
:1008600004060450400AD8A4E5EF04F0149045EFC4
:1008700004F0043E03D00406E5EF04F00450C00A7F
:10088000D8A4E5EF04F01480147284A674EF04F089
:1008900080A274EF04F0266AB20E246ED890040E83
:1008A000256E2532D8B0268A80AE258680AC258874
:1008B00082A0258A82A2258C82A4268082A62682F6
:1008C00083A0268483A2268614B02688EAEC00F052
:1008D00014B004D084940C0E236EE5EF04F08492DF
:1008E0000C0E226EE5EF04F0266AB00E246E84B67C
:1008F000A8EF04F080B2A8EF04F0D890040E256EA3
:10090000253280A4258680AE258880AC258A82A0E9
:10091000258C82A2268082A4268282A6268483A099
:10092000268614B02688040EE8A0268AEAEC00F099
:1009300014A0E5EF04F0040EE8B004D084940C0E8B
:10094000236EE5EF04F084920C0E226EE5EF04F0C6
:10095000040E256E80AE258880AC258A82A0258C69
:1009600082A2268082A4268282A6268483A026864E
:1009700080A2CCEF04F0268814B0268AEAEC00F0BE
:1009800014B004D084940C0E236EE5EF04F084922E
:100990000C0E226EE5EF04F014B0268814B2268AFD
:1009A000EAEC00F0040EA96E1450A86E28EC01F0D9
:1009B00014A00BD014B2E8B004D084940C0E236EB3
:1009C000E5EF04F084920C0E226E83AAF5EF04F09A
:1009D0000550D8B4A1EF05F005060550400AD8A48B
:1009E000A1EF05F0159001EF05F0053E03D00506D7
:1009F000A1EF05F00550C00AD8A4A1EF05F01580BD
:100A0000157284A630EF05F080A230EF05F0266A5B
:100A1000B20E246ED890050E256E2532D8B0268AE7
:100A200080AE258680AC258882A0258A82A2258C6E
:100A300082A4268082A6268283A0268483A226867C
:100A400015B02688EAEC00F015B004D084940C0EA2
:100A5000236EA1EF05F084920C0E226EA1EF05F03B
:100A6000266AB00E246E84B664EF05F080B264EF9F
:100A700005F0D890050E256E253280A4258680AE1F
:100A8000258880AC258A82A0258C82A2268082A41B
:100A9000268282A6268483A0268615B02688050E87
:100AA000E8A0268AEAEC00F015A0A1EF05F0050EFB
:100AB000E8B004D084940C0E236EA1EF05F084926C
:100AC0000C0E226EA1EF05F0050E256E80AE258876
:100AD00080AC258A82A0258C82A2268082A42682D0
:100AE00082A6268483A0268680A288EF05F0268829
:100AF00015B0268AEAEC00F015B004D084940C0EF0
:100B0000236EA1EF05F084920C0E226EA1EF05F08A
:100B100015B0268815B2268AEAEC00F0050EA96EFB
:100B20001550A86E28EC01F015A00BD015B2E8B056
:100B300004D084940C0E236EA1EF05F084920C0E69
:100B4000226E83ACB1EF05F00650D8B45DEF06F02D
:100B500006060650400AD8A45DEF06F01690BDEFD9
:100B600005F0063E03D006065DEF06F00650C00A0B
:100B7000D8A45DEF06F01680167284A6ECEF05F09F
:100B800080A2ECEF05F0266AB20E246ED890060E15
:100B9000256E2532D8B0268A80AE258680AC258881
:100BA00082A0258A82A2258C82A4268082A6268203
:100BB00083A0268483A2268616B02688EAEC00F05D
:100BC00016B004D084940C0E236E5DEF06F0849270
:100BD0000C0E226E5DEF06F0266AB00E246E84B60F
:100BE00020EF06F080B220EF06F0D890060E256EBA
:100BF000253280A4258680AE258880AC258A82A0F7
:100C0000258C82A2268082A4268282A6268483A0A6
:100C1000268616B02688060EE8A0268AEAEC00F0A2
:100C200016A05DEF06F0060EE8B004D084940C0E1A
:100C3000236E5DEF06F084920C0E226E5DEF06F0DF
:100C4000060E256E80AE258880AC258A82A0258C74
:100C500082A2268082A4268282A6268483A026865B
:100C600080A244EF06F0268816B0268AEAEC00F04F
:100C700016B004D084940C0E236E5DEF06F08492BF
:100C80000C0E226E5DEF06F016B0268816B2268A8C
:100C9000EAEC00F0060EA96E1650A86E28EC01F0E2
:100CA00016A00BD016B2E8B004D084940C0E236EBC
:100CB0005DEF06F084920C0E226E83AE6DEF06F0AF
:100CC0000750D8B419EF07F007060750400AD8A418
:100CD00019EF07F0179079EF06F0073E03D00706EB
:100CE00019EF07F00750C00AD8A419EF07F01780D2
:100CF000177284A6A8EF06F080A2A8EF06F0266A75
:100D0000B20E246ED890070E256E2532D8B0268AF2
:100D100080AE258680AC258882A0258A82A2258C7B
:100D200082A4268082A6268283A0268483A2268689
:100D300017B02688EAEC00F017B004D084940C0EAB
:100D4000236E19EF07F084920C0E226E19EF07F054
:100D5000266AB00E246E84B6DCEF06F080B2DCEFBB
:100D600006F0D890070E256E253280A4258680AE29
:100D7000258880AC258A82A0258C82A2268082A428
:100D8000268282A6268483A0268617B02688070E90
:100D9000E8A0268AEAEC00F017A019EF07F0070E8A
:100DA000E8B004D084940C0E236E19EF07F08492FF
:100DB0000C0E226E19EF07F0070E256E80AE258807
:100DC00080AC258A82A0258C82A2268082A42682DD
:100DD00082A6268483A0268680A200EF07F02688BC
:100DE00017B0268AEAEC00F017B004D084940C0EF9
:100DF000236E19EF07F084920C0E226E19EF07F0A4
:100E000017B0268817B2268AEAEC00F0070EA96E02
:100E10001750A86E28EC01F017A00BD017B2E8B05D
:100E200004D084940C0E236E19EF07F084920C0EFC
:100E3000226E81A029EF07F00850D8B4D5EF07F053
:100E400008060850400AD8A4D5EF07F0189035EFEF
:100E500007F0083E03D00806D5EF07F00850C00A97
:100E6000D8A4D5EF07F01880187284A664EF07F0B5
:100E700080A264EF07F0266AB20E246ED890080EA6
:100E8000256E2532D8B0268A80AE258680AC25888E
:100E900082A0258A82A2258C82A4268082A6268210
:100EA00083A0268483A2268618B02688EAEC00F068
:100EB00018B004D084940C0E236ED5EF07F0849202
:100EC0000C0E226ED5EF07F0266AB00E246E84B6A3
:100ED00098EF07F080B298EF07F0D890080E256ED3
:100EE000253280A4258680AE258880AC258A82A004
:100EF000258C82A2268082A4268282A6268483A0B4
:100F0000268618B02688080EE8A0268AEAEC00F0AB
:100F100018A0D5EF07F0080EE8B004D084940C0EAA
:100F2000236ED5EF07F084920C0E226ED5EF07F0FA
:100F3000080E256E80AE258880AC258A82A0258C7F
:100F400082A2268082A4268282A6268483A0268668
:100F500080A2BCEF07F0268818B0268AEAEC00F0E1
:100F600018B004D084940C0E236ED5EF07F0849251
:100F70000C0E226ED5EF07F018B0268818B2268A1C
:100F8000EAEC00F0080EA96E1850A86E28EC01F0EB
:100F900018A00BD018B2E8B004D084940C0E236EC5
:100FA000D5EF07F084920C0E226E81A2E5EF07F0D8
:100FB0000950D8B491EF08F009060950400AD8A4A6
:100FC00091EF08F01990F1EF07F0093E03D0090600
:100FD00091EF08F00950C00AD8A491EF08F01980E9
:100FE000197284A620EF08F080A220EF08F0266A8C
:100FF000B20E246ED890090E256E2532D8B0268AFE
:1010000080AE258680AC258882A0258A82A2258C88
:1010100082A4268082A6268283A0268483A2268696
:1010200019B02688EAEC00F019B004D084940C0EB4
:10103000236E91EF08F084920C0E226E91EF08F06F
:10104000266AB00E246E84B654EF08F080B254EFD6
:1010500008F0D890090E256E253280A4258680AE32
:10106000258880AC258A82A0258C82A2268082A435
:10107000268282A6268483A0268619B02688090E99
:10108000E8A0268AEAEC00F019A091EF08F0090E1A
:10109000E8B004D084940C0E236E91EF08F0849293
:1010A0000C0E226E91EF08F0090E256E80AE258899
:1010B00080AC258A82A0258C82A2268082A42682EA
:1010C00082A6268483A0268680A278EF08F0268850
:1010D00019B0268AEAEC00F019B004D084940C0E02
:1010E000236E91EF08F084920C0E226E91EF08F0BF
:1010F00019B0268819B2268AEAEC00F0090EA96E0A
:101100001950A86E28EC01F019A00BD019B2E8B064
:1011100004D084940C0E236E91EF08F084920C0E90
:10112000226E81A4A1EF08F00A50D8B44DEF09F067
:101130000A060A50400AD8A44DEF09F01A90ADEF04
:1011400008F00A3E03D00A064DEF09F00A50C00A23
:10115000D8A44DEF09F01A801A7284A6DCEF08F0CB
:1011600080A2DCEF08F0266AB20E246ED8900A0E38
:10117000256E2532D8B0268A80AE258680AC25889B
:1011800082A0258A82A2258C82A4268082A626821D
:1011900083A0268483A226861AB02688EAEC00F073
:1011A0001AB004D084940C0E236E4DEF09F0849293
:1011B0000C0E226E4DEF09F0266AB00E246E84B636
:1011C00010EF09F080B210EF09F0D8900A0E256EEA
:1011D000253280A4258680AE258880AC258A82A011
:1011E000258C82A2268082A4268282A6268483A0C1
:1011F00026861AB026880A0EE8A0268AEAEC00F0B5
:101200001AA04DEF09F00A0EE8B004D084940C0E39
:10121000236E4DEF09F084920C0E226E4DEF09F013
:101220000A0E256E80AE258880AC258A82A0258C8A
:1012300082A2268082A4268282A6268483A0268675
:1012400080A234EF09F026881AB0268AEAEC00F072
:101250001AB004D084940C0E236E4DEF09F08492E2
:101260000C0E226E4DEF09F01AB026881AB2268AAB
:10127000EAEC00F00A0EA96E1A50A86E28EC01F0F4
:101280001AA00BD01AB2E8B004D084940C0E236ECE
:101290004DEF09F084920C0E226E81A65DEF09F0ED
:1012A0000B50D8B409EF0AF00B060B50400AD8A433
:1012B00009EF0AF01B9069EF09F00B3E03D00B0613
:1012C00009EF0AF00B50C00AD8A409EF0AF01B80FE
:1012D0001B7284A698EF09F080A298EF09F0266AA5
:1012E000B20E246ED8900B0E256E2532D8B0268A09
:1012F00080AE258680AC258882A0258A82A2258C96
:1013000082A4268082A6268283A0268483A22686A3
:101310001BB02688EAEC00F01BB004D084940C0EBD
:10132000236E09EF0AF084920C0E226E09EF0AF088
:10133000266AB00E246E84B6CCEF09F080B2CCEFF2
:1013400009F0D8900B0E256E253280A4258680AE3C
:10135000258880AC258A82A0258C82A2268082A442
:10136000268282A6268483A026861BB026880B0EA2
:10137000E8A0268AEAEC00F01BA009EF0AF00B0EA9
:10138000E8B004D084940C0E236E09EF0AF0849226
:101390000C0E226E09EF0AF00B0E256E80AE25882A
:1013A00080AC258A82A0258C82A2268082A42682F7
:1013B00082A6268483A0268680A2F0EF09F02688E4
:1013C0001BB0268AEAEC00F01BB004D084940C0E0B
:1013D000236E09EF0AF084920C0E226E09EF0AF0D8
:1013E0001BB026881BB2268AEAEC00F00B0EA96E11
:1013F0001B50A86E28EC01F01BA00BD01BB2E8B06C
:1014000004D084940C0E236E09EF0AF084920C0E23
:10141000226E81A819EF0AF00C50D8B4C5EF0AF07B
:101420000C060C50400AD8A4C5EF0AF01C9025EF1A
:101430000AF00C3E03D00C06C5EF0AF00C50C00AAF
:10144000D8A4C5EF0AF01C801C7284A654EF0AF0E1
:1014500080A254EF0AF0266AB20E246ED8900C0EC9
:10146000256E2532D8B0268A80AE258680AC2588A8
:1014700082A0258A82A2258C82A4268082A626822A
:1014800083A0268483A226861CB02688EAEC00F07E
:101490001CB004D084940C0E236EC5EF0AF0849225
:1014A0000C0E226EC5EF0AF0266AB00E246E84B6CA
:1014B00088EF0AF080B288EF0AF0D8900C0E256E03
:1014C000253280A4258680AE258880AC258A82A01E
:1014D000258C82A2268082A4268282A6268483A0CE
:1014E00026861CB026880C0EE8A0268AEAEC00F0BE
:1014F0001CA0C5EF0AF00C0EE8B004D084940C0ECA
:10150000236EC5EF0AF084920C0E226EC5EF0AF02E
:101510000C0E256E80AE258880AC258A82A0258C95
:1015200082A2268082A4268282A6268483A0268682
:1015300080A2ACEF0AF026881CB0268AEAEC00F004
:101540001CB004D084940C0E236EC5EF0AF0849274
:101550000C0E226EC5EF0AF01CB026881CB2268A3B
:10156000EAEC00F00C0EA96E1C50A86E28EC01F0FD
:101570001CA00BD01CB2E8B004D084940C0E236ED7
:10158000C5EF0AF084920C0E226E81AAD5EF0AF004
:101590000D50D8B481EF0BF00D060D50400AD8A4C1
:1015A00081EF0BF01D90E1EF0AF00D3E03D00D0628
:1015B00081EF0BF00D50C00AD8A481EF0BF01D8015
:1015C0001D7284A610EF0BF080A210EF0BF0266ABC
:1015D000B20E246ED8900D0E256E2532D8B0268A14
:1015E00080AE258680AC258882A0258A82A2258CA3
:1015F00082A4268082A6268283A0268483A22686B1
:101600001DB02688EAEC00F01DB004D084940C0EC6
:10161000236E81EF0BF084920C0E226E81EF0BF0A3
:10162000266AB00E246E84B644EF0BF080B244EF0D
:101630000BF0D8900D0E256E253280A4258680AE45
:10164000258880AC258A82A0258C82A2268082A44F
:10165000268282A6268483A026861DB026880D0EAB
:10166000E8A0268AEAEC00F01DA081EF0BF00D0E39
:10167000E8B004D084940C0E236E81EF0BF08492BA
:101680000C0E226E81EF0BF00D0E256E80AE2588BC
:1016900080AC258A82A0258C82A2268082A4268204
:1016A00082A6268483A0268680A268EF0BF0268877
:1016B0001DB0268AEAEC00F01DB004D084940C0E14
:1016C000236E81EF0BF084920C0E226E81EF0BF0F3
:1016D0001DB026881DB2268AEAEC00F00D0EA96E18
:1016E0001D50A86E28EC01F01DA00BD01DB2E8B073
:1016F00004D084940C0E236E81EF0BF084920C0EB8
:10170000226E81AC91EF0BF00E50D8B43DEF0CF08F
:101710000E060E50400AD8A43DEF0CF01E909DEF2F
:101720000BF00E3E03D00E063DEF0CF00E50C00A3B
:10173000D8A43DEF0CF01E801E7284A6CCEF0BF0F7
:1017400080A2CCEF0BF0266AB20E246ED8900E0E5B
:10175000256E2532D8B0268A80AE258680AC2588B5
:1017600082A0258A82A2258C82A4268082A6268237
:1017700083A0268483A226861EB02688EAEC00F089
:101780001EB004D084940C0E236E3DEF0CF08492B6
:101790000C0E226E3DEF0CF0266AB00E246E84B65D
:1017A00000EF0CF080B200EF0CF0D8900E0E256E1A
:1017B000253280A4258680AE258880AC258A82A02B
:1017C000258C82A2268082A4268282A6268483A0DB
:1017D00026861EB026880E0EE8A0268AEAEC00F0C7
:1017E0001EA03DEF0CF00E0EE8B004D084940C0E59
:1017F000236E3DEF0CF084920C0E226E3DEF0CF048
:101800000E0E256E80AE258880AC258A82A0258CA0
:1018100082A2268082A4268282A6268483A026868F
:1018200080A224EF0CF026881EB0268AEAEC00F095
:101830001EB004D084940C0E236E3DEF0CF0849205
:101840000C0E226E3DEF0CF01EB026881EB2268ACA
:10185000EAEC00F00E0EA96E1E50A86E28EC01F006
:101860001EA00BD01EB2E8B004D084940C0E236EE0
:101870003DEF0CF084920C0E226E81AE4DEF0CF019
:101880000F50D8B4F9EF0CF00F060F50400AD8A44F
:10189000F9EF0CF01F9059EF0CF00F3E03D00F063C
:1018A000F9EF0CF00F50C00AD8A4F9EF0CF01F802C
:1018B0001F7284A688EF0CF080A288EF0CF0266AD5
:1018C000B20E246ED8900F0E256E2532D8B0268A1F
:1018D00080AE258680AC258882A0258A82A2258CB0
:1018E00082A4268082A6268283A0268483A22686BE
:1018F0001FB02688EAEC00F01FB004D084940C0ED0
:10190000236EF9EF0CF084920C0E226EF9EF0CF0BE
:10191000266AB00E246E84B6BCEF0CF080B2BCEF29
:101920000CF0D8900F0E256E253280A4258680AE4F
:10193000258880AC258A82A0258C82A2268082A45C
:10194000268282A6268483A026861FB026880F0EB4
:10195000E8A0268AEAEC00F01FA0F9EF0CF00F0EC9
:10196000E8B004D084940C0E236EF9EF0CF084924E
:101970000C0E226EF9EF0CF00F0E256E80AE25884E
:1019800080AC258A82A0258C82A2268082A4268211
:1019900082A6268483A0268680A2E0EF0CF026880B
:1019A0001FB0268AEAEC00F01FB004D084940C0E1D
:1019B000236EF9EF0CF084920C0E226EF9EF0CF00E
:1019C0001FB026881FB2268AEAEC00F00F0EA96E1F
:1019D0001F50A86E28EC01F01FA00BD01FB2E8B07A
:1019E00004D084940C0E236EF9EF0CF084920C0E4C
:1019F000226E1200D388D38A9B8CB26AB36A110E0E
:101A0000B16E040ED56E356A366A376A0F0EC16E36
:101A1000A69EA69CA684AA6AA96AA680A850106E53
:101A2000A92AA680A850116EA92AA680A850126ED5
:101A3000A92AA680A850136EA92AA680A850146EC1
:101A4000A92AA680A850156EA92AA680A850166EAD
:101A5000A92AA680A850176EA92AA680A850186E99
:101A6000A92AA680A850196EA92AA680A8501A6E85
:101A7000A92AA680A8501B6EA92AA680A8501C6E71
:101A8000A92AA680A8501D6EA92AA680A8501E6E5D
:101A9000A92AA680A8501F6E1200CF0E926EFF0ECC
:101AA000936EBF0E946EFF0E956EE80E966E808A52
:101AB000848084828484010E206E216E226E236EC7
:101AC000006A016A026A036A046A056A066A076AAA
:101AD000086A096A0A6A0B6A0C6A0D6A0E6A0F6A5A
:101AE0001200202E02D0808A202A212E02D084804B
:101AF000212A222E02D08482222A232E02D08484FC
:101B0000232A1200FAEC0CF04DEC0DF0C6EC00F0BC
:101B1000A1A203D0A19271EC0DF037EC01F00CEC16
:0A1B200001F030EC01F088EF0DF049
:020000040030CA
:0100010008F6
:0100020018E5
:010003001EDE
:0100050001F9
:010006008079
:010008000FE8
:01000900C036
:00000001FF
