:020000040000FA
:0400000074EF0BF09E
:020004000000FA
:080018000EEF00F0796ED8CF65
:100020007AF0E0CF7BF09EA03CD09E907CAA0CD0D2
:10003000829CAB8EB350030B060FE81CCF6EB25000
:10004000CE6E7C9A7C949BD07CACF4D7E1CF77F0D9
:10005000E2CF78F013EE00F0E750746E7CA604D087
:10006000B8AC1AD082AE18D07CB40CD0B06A770E7F
:10007000AF6ECA0ECE6ECF687C8477C0E1FF78C0C9
:10008000E2FF7DD0E750AD6E7C867C88736A77C0D6
:10009000E1FF78C0E2FF73D077C0E1FF78C0E2FFF4
:1000A000C9D7ABA40ED00000AE50AE507668AB9E60
:1000B000828C7C987C90FC0ECF6E7B0ECE6E7C8A00
:1000C0005ED0AE50726E72BE716AE1CF77F0E2CF51
:1000D00078F0030EE26E800E7124E16E7250E76ECE
:1000E00077C0E1FF78C0E2FF72AE13D07250706E3D
:1000F00072BC06D072BA02D0020E08D0040E06D02E
:1001000072BA02D0060E02D07C82FF0E766E712A81
:1001100013D07250701A7CB2766E7C92712A715034
:1001200076620AD0010E716E701ED8A403D07C8056
:10013000AE5002D07C8E23D07CA87CD7725074182D
:10014000D8A4B2D7E1CF77F0E2CF78F0732A030ECC
:10015000E26E000E7324E16EE750746E73507562A8
:1001600007D07C9C7C9877C0E1FF78C0E2FF62D723
:10017000E750AD6E7C8877C0E1FF78C0E2FF7BC0BE
:10018000E0FF79507AC0D8FFF28C10007C6A7D6A5B
:10019000010E716E949C948E010EB46E9298B88686
:1001A000B888AC98AC94B06A770EAF6EAB8EAB8863
:1001B000AC8AAE50AE50AE50AB92AB94CF6ACE6A22
:1001C000310ECD6E9D8A9D809F909F9AD08EF28C2D
:1001D000F28E12003750342404E3120084900C0E87
:1001E000216E336A01EE00F010EE24F03550E96E16
:1001F000352A3450EF6E386E372A3806E92A352A08
:10020000372AE750EF6E331AE12A382EF7D7E92A5A
:10021000352A372A3350E81CEF6E12007CBC1200DE
:100220003550366201D0120003EE00F021EE00F0EE
:100230003650D926DF50386E756E362A3706D92AE1
:10024000DF50EF6EE92A362A3706382EF8D77C8C35
:100250001200F29E550EA76EAA0EA76EA682F28E0F
:10026000A6B2FED712007CA0120003018051396EA5
:1002700081513A6E82513B6E7C90809A060E206EC0
:10028000B00E396212003BA8D6EF01F03AA803D0B5
:1002900080BE8CD002D080AE89D03AAA03D080BC78
:1002A00085D002D080AC82D03AAC03D082B07ED070
:1002B00002D082A07BD03BA003D082B277D002D004
:1002C00082A274D03BA203D082B470D002D082A4A8
:1002D0006DD03BA403D082B669D002D082A666D08E
:1002E0003BA603D083B062D002D083A05FD080A2AF
:1002F00020D03A500F0B000AD8A458D084900C0E8E
:10030000216E3BAA0CD083840F0E006E84940C0ED9
:10031000236E000EA96EA88029EC01F047D08394CB
:1003200084920C0E226E000EA96EA89029EC01F0AA
:100330003DD03AA603D080B439D002D080A436D0C4
:10034000D890000EE8303A18070BD8A42FD084902C
:100350000C0E216E000EE8B015D03BAA0CD08384A1
:100360000F0E006E84940C0E236E000EA96EA880F2
:1003700029EC01F01BD08394000EA96EA89029EC03
:1003800001F014D03BBA0CD083840F0E006E84921F
:100390000C0E226E000EA96EA88029EC01F006D08A
:1003A0008394000EA96EA89029EC01F000003BA8F0
:1003B0006AEF02F03AA803D080BE8CD002D080AEA3
:1003C00089D03AAA03D080BC85D002D080AC82D03C
:1003D0003AAC03D082B07ED002D082A07BD03BA0CA
:1003E00003D082B277D002D082A274D03BA203D0D5
:1003F00082B470D002D082A46DD03BA403D082B668
:1004000069D002D082A666D03BA603D083B062D06A
:1004100002D083A05FD080A220D03A500F0B010AF7
:10042000D8A458D084900C0E216E3BAA0CD08386A1
:100430000F0E016E84940C0E236E010EA96EA8801F
:1004400029EC01F047D0839684920C0E226E010EA7
:10045000A96EA89029EC01F03DD03AA603D080B453
:1004600039D002D080A436D0D890010EE8303A18A6
:10047000070BD8A42FD084900C0E216E010EE8B08B
:1004800015D03BAA0CD083860F0E016E84940C0EFF
:10049000236E010EA96EA88029EC01F01BD0839673
:1004A000010EA96EA89029EC01F014D03BBA0CD033
:1004B00083860F0E016E84920C0E226E010EA96EC1
:1004C000A88029EC01F006D08396010EA96EA890B1
:1004D00029EC01F000003BA8FEEF02F03AA803D09F
:1004E00080BE8CD002D080AE89D03AAA03D080BC26
:1004F00085D002D080AC82D03AAC03D082B07ED01E
:1005000002D082A07BD03BA003D082B277D002D0B1
:1005100082A274D03BA203D082B470D002D082A455
:100520006DD03BA403D082B669D002D082A666D03B
:100530003BA603D083B062D002D083A05FD080A25C
:1005400020D03A500F0B020AD8A458D084900C0E39
:10055000216E3BAA0CD082880F0E026E84940C0E82
:10056000236E020EA96EA88029EC01F047D0829874
:1005700084920C0E226E020EA96EA89029EC01F056
:100580003DD03AA603D080B439D002D080A436D072
:10059000D890020EE8303A18070BD8A42FD08490D8
:1005A0000C0E216E020EE8B015D03BAA0CD082884A
:1005B0000F0E026E84940C0E236E020EA96EA8809C
:1005C00029EC01F01BD08298020EA96EA89029ECAC
:1005D00001F014D03BBA0CD082880F0E026E8492C8
:1005E0000C0E226E020EA96EA88029EC01F006D036
:1005F0008298020EA96EA89029EC01F000003BA899
:1006000092EF03F03AA803D080BE8CD002D080AE27
:1006100089D03AAA03D080BC85D002D080AC82D0E9
:100620003AAC03D082B07ED002D082A07BD03BA077
:1006300003D082B277D002D082A274D03BA203D082
:1006400082B470D002D082A46DD03BA403D082B615
:1006500069D002D082A666D03BA603D083B062D018
:1006600002D083A05FD080A220D03A500F0B030AA3
:10067000D8A458D084900C0E216E3BAA0CD0828A4C
:100680000F0E036E84940C0E236E030EA96EA880C9
:1006900029EC01F047D0829A84920C0E226E030E50
:1006A000A96EA89029EC01F03DD03AA603D080B401
:1006B00039D002D080A436D0D890030EE8303A1852
:1006C000070BD8A42FD084900C0E216E030EE8B037
:1006D00015D03BAA0CD0828A0F0E036E84940C0EA8
:1006E000236E030EA96EA88029EC01F01BD0829A1C
:1006F000030EA96EA89029EC01F014D03BBA0CD0DF
:10070000828A0F0E036E84920C0E226E030EA96E67
:10071000A88029EC01F006D0829A030EA96EA89059
:1007200029EC01F000003BA826EF04F03AA803D022
:1007300080BE8CD002D080AE89D03AAA03D080BCD3
:1007400085D002D080AC82D03AAC03D082B07ED0CB
:1007500002D082A07BD03BA003D082B277D002D05F
:1007600082A274D03BA203D082B470D002D082A403
:100770006DD03BA403D082B669D002D082A666D0E9
:100780003BA603D083B062D002D083A05FD080A20A
:1007900020D03A500F0B040AD8A458D084900C0EE5
:1007A000216E3BAA0CD083880F0E046E84940C0E2D
:1007B000236E040EA96EA88029EC01F047D083981F
:1007C00084920C0E226E040EA96EA89029EC01F002
:1007D0003DD03AA603D080B439D002D080A436D020
:1007E000D890040EE8303A18070BD8A42FD0849084
:1007F0000C0E216E040EE8B015D03BAA0CD08388F5
:100800000F0E046E84940C0E236E040EA96EA88045
:1008100029EC01F01BD08398040EA96EA89029EC56
:1008200001F014D03BBA0CD083880F0E046E849272
:100830000C0E226E040EA96EA88029EC01F006D0E1
:100840008398040EA96EA89029EC01F000003BA843
:10085000BAEF04F03AA803D080BE8CD002D080AEAC
:1008600089D03AAA03D080BC85D002D080AC82D097
:100870003AAC03D082B07ED002D082A07BD03BA025
:1008800003D082B277D002D082A274D03BA203D030
:1008900082B470D002D082A46DD03BA403D082B6C3
:1008A00069D002D082A666D03BA603D083B062D0C6
:1008B00002D083A05FD080A220D03A500F0B050A4F
:1008C000D8A458D084900C0E216E3BAA0CD0838AF9
:1008D0000F0E056E84940C0E236E050EA96EA88073
:1008E00029EC01F047D0839A84920C0E226E050EFB
:1008F000A96EA89029EC01F03DD03AA603D080B4AF
:1009000039D002D080A436D0D890050EE8303A18FD
:10091000070BD8A42FD084900C0E216E050EE8B0E2
:1009200015D03BAA0CD0838A0F0E056E84940C0E52
:10093000236E050EA96EA88029EC01F01BD0839AC6
:10094000050EA96EA89029EC01F014D03BBA0CD08A
:10095000838A0F0E056E84920C0E226E050EA96E10
:10096000A88029EC01F006D0839A050EA96EA89004
:1009700029EC01F000003BA84EEF05F03AA803D0A7
:1009800080BE8CD002D080AE89D03AAA03D080BC81
:1009900085D002D080AC82D03AAC03D082B07ED079
:1009A00002D082A07BD03BA003D082B277D002D00D
:1009B00082A274D03BA203D082B470D002D082A4B1
:1009C0006DD03BA403D082B669D002D082A666D097
:1009D0003BA603D083B062D002D083A05FD080A2B8
:1009E00020D03A500F0B060AD8A458D084900C0E91
:1009F000216E3BAA0CD0838C0F0E066E84940C0ED5
:100A0000236E060EA96EA88029EC01F047D0839CC6
:100A100084920C0E226E060EA96EA89029EC01F0AD
:100A20003DD03AA603D080B439D002D080A436D0CD
:100A3000D890060EE8303A18070BD8A42FD084902F
:100A40000C0E216E060EE8B015D03BAA0CD0838C9C
:100A50000F0E066E84940C0E236E060EA96EA880EF
:100A600029EC01F01BD0839C060EA96EA89029ECFE
:100A700001F014D03BBA0CD0838C0F0E066E84921A
:100A80000C0E226E060EA96EA88029EC01F006D08D
:100A9000839C060EA96EA89029EC01F000003BA8EB
:100AA000E2EF05F03AA803D080BE8CD002D080AE31
:100AB00089D03AAA03D080BC85D002D080AC82D045
:100AC0003AAC03D082B07ED002D082A07BD03BA0D3
:100AD00003D082B277D002D082A274D03BA203D0DE
:100AE00082B470D002D082A46DD03BA403D082B671
:100AF00069D002D082A666D03BA603D083B062D074
:100B000002D083A05FD080A220D03A500F0B070AFA
:100B1000D8A458D084900C0E216E3BAA0CD0838EA2
:100B20000F0E076E84940C0E236E070EA96EA8801C
:100B300029EC01F047D0839E84920C0E226E070EA2
:100B4000A96EA89029EC01F03DD03AA603D080B45C
:100B500039D002D080A436D0D890070EE8303A18A9
:100B6000070BD8A42FD084900C0E216E070EE8B08E
:100B700015D03BAA0CD0838E0F0E076E84940C0EFA
:100B8000236E070EA96EA88029EC01F01BD0839E6E
:100B9000070EA96EA89029EC01F014D03BBA0CD036
:100BA000838E0F0E076E84920C0E226E070EA96EB6
:100BB000A88029EC01F006D0839E070EA96EA890AC
:100BC00029EC01F000003BA876EF06F03AA803D02C
:100BD00080BE8CD002D080AE89D03AAA03D080BC2F
:100BE00085D002D080AC82D03AAC03D082B07ED027
:100BF00002D082A07BD03BA003D082B277D002D0BB
:100C000082A274D03BA203D082B470D002D082A45E
:100C10006DD03BA403D082B669D002D082A666D044
:100C20003BA603D083B062D002D083A05FD080A265
:100C300020D03A500F0B080AD8A458D084900C0E3C
:100C4000216E3BAA0CD081800F0E086E84940C0E8E
:100C5000236E080EA96EA88029EC01F047D0819080
:100C600084920C0E226E080EA96EA89029EC01F059
:100C70003DD03AA603D080B439D002D080A436D07B
:100C8000D890080EE8303A18070BD8A42FD08490DB
:100C90000C0E216E080EE8B015D03BAA0CD0818056
:100CA0000F0E086E84940C0E236E080EA96EA88099
:100CB00029EC01F01BD08190080EA96EA89029ECB8
:100CC00001F014D03BBA0CD081800F0E086E8492D4
:100CD0000C0E226E080EA96EA88029EC01F006D039
:100CE0008190080EA96EA89029EC01F000003BA8A5
:100CF0000AEF07F03AA803D080BE8CD002D080AEB5
:100D000089D03AAA03D080BC85D002D080AC82D0F2
:100D10003AAC03D082B07ED002D082A07BD03BA080
:100D200003D082B277D002D082A274D03BA203D08B
:100D300082B470D002D082A46DD03BA403D082B61E
:100D400069D002D082A666D03BA603D083B062D021
:100D500002D083A05FD080A220D03A500F0B090AA6
:100D6000D8A458D084900C0E216E3BAA0CD081825E
:100D70000F0E096E84940C0E236E090EA96EA880C6
:100D800029EC01F047D0819284920C0E226E090E5C
:100D9000A96EA89029EC01F03DD03AA603D080B40A
:100DA00039D002D080A436D0D890090EE8303A1855
:100DB000070BD8A42FD084900C0E216E090EE8B03A
:100DC00015D03BAA0CD081820F0E096E84940C0EB4
:100DD000236E090EA96EA88029EC01F01BD0819228
:100DE000090EA96EA89029EC01F014D03BBA0CD0E2
:100DF00081820F0E096E84920C0E226E090EA96E6E
:100E0000A88029EC01F006D08192090EA96EA89065
:100E100029EC01F000003BA89EEF07F03AA803D0B0
:100E200080BE8CD002D080AE89D03AAA03D080BCDC
:100E300085D002D080AC82D03AAC03D082B07ED0D4
:100E400002D082A07BD03BA003D082B277D002D068
:100E500082A274D03BA203D082B470D002D082A40C
:100E60006DD03BA403D082B669D002D082A666D0F2
:100E70003BA603D083B062D002D083A05FD080A213
:100E800020D03A500F0B0A0AD8A458D084900C0EE8
:100E9000216E3BAA0CD081840F0E0A6E84940C0E36
:100EA000236E0A0EA96EA88029EC01F047D0819428
:100EB00084920C0E226E0A0EA96EA89029EC01F005
:100EC0003DD03AA603D080B439D002D080A436D029
:100ED000D8900A0EE8303A18070BD8A42FD0849087
:100EE0000C0E216E0A0EE8B015D03BAA0CD08184FE
:100EF0000F0E0A6E84940C0E236E0A0EA96EA88043
:100F000029EC01F01BD081940A0EA96EA89029EC5F
:100F100001F014D03BBA0CD081840F0E0A6E84927B
:100F20000C0E226E0A0EA96EA88029EC01F006D0E4
:100F300081940A0EA96EA89029EC01F000003BA84C
:100F400032EF08F03AA803D080BE8CD002D080AE39
:100F500089D03AAA03D080BC85D002D080AC82D0A0
:100F60003AAC03D082B07ED002D082A07BD03BA02E
:100F700003D082B277D002D082A274D03BA203D039
:100F800082B470D002D082A46DD03BA403D082B6CC
:100F900069D002D082A666D03BA603D083B062D0CF
:100FA00002D083A05FD080A220D03A500F0B0B0A52
:100FB000D8A458D084900C0E216E3BAA0CD0818608
:100FC0000F0E0B6E84940C0E236E0B0EA96EA88070
:100FD00029EC01F047D0819684920C0E226E0B0E04
:100FE000A96EA89029EC01F03DD03AA603D080B4B8
:100FF00039D002D080A436D0D8900B0EE8303A1801
:10100000070BD8A42FD084900C0E216E0B0EE8B0E5
:1010100015D03BAA0CD081860F0E0B6E84940C0E5B
:10102000236E0B0EA96EA88029EC01F01BD08196CF
:101030000B0EA96EA89029EC01F014D03BBA0CD08D
:1010400081860F0E0B6E84920C0E226E0B0EA96E13
:10105000A88029EC01F006D081960B0EA96EA8900D
:1010600029EC01F000003BA8C6EF08F03AA803D035
:1010700080BE8CD002D080AE89D03AAA03D080BC8A
:1010800085D002D080AC82D03AAC03D082B07ED082
:1010900002D082A07BD03BA003D082B277D002D016
:1010A00082A274D03BA203D082B470D002D082A4BA
:1010B0006DD03BA403D082B669D002D082A666D0A0
:1010C0003BA603D083B062D002D083A05FD080A2C1
:1010D00020D03A500F0B0C0AD8A458D084900C0E94
:1010E000216E3BAA0CD081880F0E0C6E84940C0EDE
:1010F000236E0C0EA96EA88029EC01F047D08198D0
:1011000084920C0E226E0C0EA96EA89029EC01F0B0
:101110003DD03AA603D080B439D002D080A436D0D6
:10112000D8900C0EE8303A18070BD8A42FD0849032
:101130000C0E216E0C0EE8B015D03BAA0CD08188A5
:101140000F0E0C6E84940C0E236E0C0EA96EA880EC
:1011500029EC01F01BD081980C0EA96EA89029EC07
:1011600001F014D03BBA0CD081880F0E0C6E849223
:101170000C0E226E0C0EA96EA88029EC01F006D090
:1011800081980C0EA96EA89029EC01F000003BA8F4
:101190005AEF09F03AA803D080BE8CD002D080AEBE
:1011A00089D03AAA03D080BC85D002D080AC82D04E
:1011B0003AAC03D082B07ED002D082A07BD03BA0DC
:1011C00003D082B277D002D082A274D03BA203D0E7
:1011D00082B470D002D082A46DD03BA403D082B67A
:1011E00069D002D082A666D03BA603D083B062D07D
:1011F00002D083A05FD080A220D03A500F0B0D0AFE
:10120000D8A458D084900C0E216E3BAA0CD0818AB1
:101210000F0E0D6E84940C0E236E0D0EA96EA88019
:1012200029EC01F047D0819A84920C0E226E0D0EAB
:10123000A96EA89029EC01F03DD03AA603D080B465
:1012400039D002D080A436D0D8900D0EE8303A18AC
:10125000070BD8A42FD084900C0E216E0D0EE8B091
:1012600015D03BAA0CD0818A0F0E0D6E84940C0E03
:10127000236E0D0EA96EA88029EC01F01BD0819A77
:101280000D0EA96EA89029EC01F014D03BBA0CD039
:10129000818A0F0E0D6E84920C0E226E0D0EA96EB9
:1012A000A88029EC01F006D0819A0D0EA96EA890B5
:1012B00029EC01F000003BA8EEEF09F03AA803D0BA
:1012C00080BE8CD002D080AE89D03AAA03D080BC38
:1012D00085D002D080AC82D03AAC03D082B07ED030
:1012E00002D082A07BD03BA003D082B277D002D0C4
:1012F00082A274D03BA203D082B470D002D082A468
:101300006DD03BA403D082B669D002D082A666D04D
:101310003BA603D083B062D002D083A05FD080A26E
:1013200020D03A500F0B0E0AD8A458D084900C0E3F
:10133000216E3BAA0CD0818C0F0E0E6E84940C0E85
:10134000236E0E0EA96EA88029EC01F047D0819C77
:1013500084920C0E226E0E0EA96EA89029EC01F05C
:101360003DD03AA603D080B439D002D080A436D084
:10137000D8900E0EE8303A18070BD8A42FD08490DE
:101380000C0E216E0E0EE8B015D03BAA0CD0818C4D
:101390000F0E0E6E84940C0E236E0E0EA96EA88096
:1013A00029EC01F01BD0819C0E0EA96EA89029ECAF
:1013B00001F014D03BBA0CD0818C0F0E0E6E8492CB
:1013C0000C0E226E0E0EA96EA88029EC01F006D03C
:1013D000819C0E0EA96EA89029EC01F000003BA89C
:1013E00082EF0AF03AA803D080BE8CD002D080AE43
:1013F00089D03AAA03D080BC85D002D080AC82D0FC
:101400003AAC03D082B07ED002D082A07BD03BA089
:1014100003D082B277D002D082A274D03BA203D094
:1014200082B470D002D082A46DD03BA403D082B627
:1014300069D002D082A666D03BA603D083B062D02A
:1014400002D083A05FD080A220D03A500F0B0F0AA9
:10145000D8A458D084900C0E216E3BAA0CD0818E5B
:101460000F0E0F6E84940C0E236E0F0EA96EA880C3
:1014700029EC01F047D0819E84920C0E226E0F0E53
:10148000A96EA89029EC01F03DD03AA603D080B413
:1014900039D002D080A436D0D8900F0EE8303A1858
:1014A000070BD8A42FD084900C0E216E0F0EE8B03D
:1014B00015D03BAA0CD0818E0F0E0F6E84940C0EAB
:1014C000236E0F0EA96EA88029EC01F01BD0819E1F
:1014D0000F0EA96EA89029EC01F014D03BBA0CD0E5
:1014E000818E0F0E0F6E84920C0E226E0F0EA96E5F
:1014F000A88029EC01F006D0819E0F0EA96EA8905D
:1015000029EC01F000001200D388D38A9B8CB26AC8
:10151000B36A110EB16E040ED56E356A366A376A3B
:101520000F0EC16E1200CF0E926E000E936ECF0E94
:10153000946E010E956EE80E966E808A8480848289
:101540008484010E206E216E226E236E010E006EC9
:10155000016E026E036E046E056E066E076E086EF7
:10156000096E0A6E0B6E0C6E0D6E0E6E0F6EA69EE1
:10157000A69CA684AA6AA96A839483968298829A72
:101580008398839A839C839E819081928194819693
:101590008198819A819C819E84A61200A680A85081
:1015A000E8B08384A92AA680A850E8B08386A92A37
:1015B000A680A850E8B08288A92A829AA680A8505E
:1015C000E8B0828AA92AA680A850E8B08388A92A10
:1015D000A680A850E8B0838AA92AA680A850E8B0BF
:1015E000838CA92AA680A850E8B0838EA92AA68059
:1015F000A850E8B08180A92AA680A850E8B08182CE
:10160000A92AA680A850E8B08184A92AA680A8505B
:10161000E8B08186A92AA680A850E8B08188A92AC6
:10162000A680A850E8B0818AA92AA680A850E8B070
:10163000818CA92AA680A850E8B0818EA92A120020
:10164000202E02D0808A202A212E02D08480212AB6
:10165000222E02D08482222A232E02D08484232A9E
:10166000120084B61200002E02D08394002A012EAC
:1016700002D08396012A022E02D08298022A032EDB
:1016800002D0829A032A042E02D08398042A052EBF
:1016900002D0839A052A062E02D0839C062A072EA2
:1016A00002D0839E072A082E02D08190082A092E94
:1016B00002D08192092A0A2E02D081940A2A0B2E86
:1016C00002D081960B2A0C2E02D081980C2A0D2E66
:1016D00002D0819A0D2A0E2E02D0819C0E2A0F2E46
:1016E00002D0819E0F2A120084EC0AF093EC0AF0DB
:1016F000C6EC00F0A1A205D0A19220EC0BF031ECD9
:0E1700000BF00EEC01F033EC01F07AEF0BF081
:020000040030CA
:0100010008F6
:0100020018E5
:010003001EDE
:0100050001F9
:010006008079
:010008000FE8
:01000900C036
:00000001FF
